{
  "_format": "hh-sol-artifact-1",
  "contractName": "SmartLoanProperties",
  "sourceName": "contracts/SmartLoanProperties.sol",
  "abi": [
    {
      "inputs": [],
      "name": "getExchange",
      "outputs": [
        {
          "internalType": "contract IAssetsExchange",
          "name": "",
          "type": "address"
        }
      ],
      "stateMutability": "view",
      "type": "function"
    },
    {
      "inputs": [],
      "name": "getLiquidationBonus",
      "outputs": [
        {
          "internalType": "uint256",
          "name": "",
          "type": "uint256"
        }
      ],
      "stateMutability": "view",
      "type": "function"
    },
    {
      "inputs": [],
      "name": "getMaxLtv",
      "outputs": [
        {
          "internalType": "uint256",
          "name": "",
          "type": "uint256"
        }
      ],
      "stateMutability": "view",
      "type": "function"
    },
    {
      "inputs": [],
      "name": "getMinSelloutLtv",
      "outputs": [
        {
          "internalType": "uint256",
          "name": "",
          "type": "uint256"
        }
      ],
      "stateMutability": "view",
      "type": "function"
    },
    {
      "inputs": [],
      "name": "getPercentagePrecision",
      "outputs": [
        {
          "internalType": "uint256",
          "name": "",
          "type": "uint256"
        }
      ],
      "stateMutability": "view",
      "type": "function"
    },
    {
      "inputs": [],
      "name": "getPool",
      "outputs": [
        {
          "internalType": "contract Pool",
          "name": "",
          "type": "address"
        }
      ],
      "stateMutability": "view",
      "type": "function"
    },
    {
      "inputs": [],
      "name": "getPriceProvider1",
      "outputs": [
        {
          "internalType": "address",
          "name": "",
          "type": "address"
        }
      ],
      "stateMutability": "view",
      "type": "function"
    },
    {
      "inputs": [],
      "name": "getPriceProvider2",
      "outputs": [
        {
          "internalType": "address",
          "name": "",
          "type": "address"
        }
      ],
      "stateMutability": "view",
      "type": "function"
    }
  ],
  "bytecode": "0x608060405260008060006101000a81548160ff02191690831515021790555034801561002a57600080fd5b506103768061003a6000396000f3fe608060405234801561001057600080fd5b50600436106100885760003560e01c806352154a261161005b57806352154a261461010557806359aa9e7214610123578063b5dbd7f014610141578063f807cd221461015f57610088565b8063026b1d5f1461008d578063132e1d39146100ab5780632802fdc8146100c95780634fcaf08f146100e7575b600080fd5b61009561017d565b6040516100a29190610286565b60405180910390f35b6100b3610199565b6040516100c091906102a1565b60405180910390f35b6100d16101a3565b6040516100de9190610250565b60405180910390f35b6100ef6101bf565b6040516100fc9190610250565b60405180910390f35b61010d6101db565b60405161011a91906102a1565b60405180910390f35b61012b6101e5565b60405161013891906102a1565b60405180910390f35b6101496101ee565b60405161015691906102a1565b60405180910390f35b6101676101f8565b604051610174919061026b565b60405180910390f35b600073df83dc5a11ee4a176264fae1146406295eb6e18d905090565b60006103e8905090565b600073981bda8276ae93f567922497153de7a5683708d3905090565b6000733befdd935b50f172e696a5187dbacfef0d208e48905090565b6000610fa0905090565b60006064905090565b6000611388905090565b600073bc45b6f1ff0626cab1746c2a5f8173a9417a4925905090565b61021d816102bc565b82525050565b61022c816102f8565b82525050565b61023b8161031c565b82525050565b61024a816102ee565b82525050565b60006020820190506102656000830184610214565b92915050565b60006020820190506102806000830184610223565b92915050565b600060208201905061029b6000830184610232565b92915050565b60006020820190506102b66000830184610241565b92915050565b60006102c7826102ce565b9050919050565b600073ffffffffffffffffffffffffffffffffffffffff82169050919050565b6000819050919050565b60006103038261030a565b9050919050565b6000610315826102ce565b9050919050565b60006103278261032e565b9050919050565b6000610339826102ce565b905091905056fea2646970667358221220112a8eb35057dc82e99dce8565dc79471b0e5ce9ce81d3863f2d06d0426f938e64736f6c63430008040033",
  "linkReferences": {},
  "deployedLinkReferences": {}
}